:020000040000FA
:10000000E00800202502000065020000090200004F
:10001000690200006B0200006D0200000000000099
:100020000000000000000000000000006F0200005F
:100030007102000000000000730200007502000061
:1000400077020000770200007702000077020000CC
:1000500077020000770200007702000077020000BC
:1000600077020000770200007702000077020000AC
:10007000770200007702000077020000770200009C
:10008000770200007702000077020000770200008C
:10009000770200007702000077020000010D0000E7
:1000A000770200007702000077020000770200006C
:1000B000770200007702000077020000770200005C
:1000C00077020000C51400007702000077020000EC
:1000D0000915000077020000770200007702000097
:1000E000E90A000077020000890900007702000099
:1000F000770200007702000077020000770200001C
:10010000770200007702000077020000770200000B
:1001100077020000770200007702000077020000FB
:1001200077020000770200007702000077020000EB
:1001300077020000770200007702000077020000DB
:1001400077020000770200007702000077020000CB
:1001500077020000770200007702000077020000BB
:1001600077020000770200007702000077020000AB
:10017000770200007702000077020000770200009B
:10018000770200007702000077020000770200008B
:10019000770200007702000077020000770200007B
:1001A000770200007702000077020000770200006B
:1001B000770200007702000077020000770200005B
:1001C000770200007702000077020000770200004B
:1001D000770200007702000077020000770200003B
:1001E000770200007702000077020000770200002B
:1001F00077020000DFF80CD000F09EF800480047BE
:10020000AD1E0000E008002004207146084202D024
:10021000EFF3098001E0EFF308807146004A1047D0
:10022000750A000014484FF0590101604FF01601A3
:1002300001604FF0880101601048416841F480413D
:1002400041600F48416841F002014160416841F05E
:10025000040141600B48804707484FF000010160EE
:1002600009480047FEE7FEE7FEE7FEE7FEE7FEE798
:10027000FEE7FEE7FEE7FEE7000100400002004067
:10028000007000406D130000F50100000649074AA8
:100290000868504343F23902104408604008704730
:1002A00001490860704700004C0000206D4EC641B7
:1002B00040EA01039B0703D009E008C9121F08C0E8
:1002C000042AFAD203E011F8013B00F8013B521E68
:1002D000F9D270472DE9F05F0546002092469B4613
:1002E00088460646814640241BE02846414647464C
:1002F000224600F042F853465A46C01A914110D3A4
:1003000011461846224600F029F82D1A67EB01081D
:100310004F4622460120002100F020F817EB00098B
:100320004E41201EA4F10104DFDC484631462A4636
:100330004346BDE8F09F0000064C074D06E0E0682C
:1003400040F0010394E8070098471034AC42F6D31C
:10035000FFF754FF0422000024220000202A04DBBF
:10036000203A00FA02F1002070479140C2F12003C8
:1003700020FA03F3194390407047202A04DB203A07
:1003800021FA02F00021704721FA02F3D040C2F1B5
:100390002002914008431946704700002DE9F041C2
:1003A0001B4C0746002601253146204600F00AFB7B
:1003B0003F223946204600F025FB3B466A04314681
:1003C000204600F0EFFA0127C4F8F870206D40F0E5
:1003D00004002065D4F8D00040F00100C4F8D0003B
:1003E0002A2000F05BFB0B48C16821F00201C160CC
:1003F0006765D4F8F40000F00701D4F8F00061F369
:100400001F4035EA0000F4D154F82600BDE8F08121
:10041000003004403800002030B512480124002389
:10042000C0F8F840016D41F004010165D0F8D0102A
:1004300041F00101C0F8D0100B49CD6825F002054C
:10044000CD604465D0F8F410D0F8F02001F0070139
:1004500061F31F4234EA0201F4D150F8230080B264
:1004600030BD000000300440380000204FF08040D4
:10047000D0F8401241F48031C0F8401270470000BB
:1004800000F01F0201219140034A800F02EB80001F
:1004900002680A4302607047040200402DE9F84FE9
:1004A0000D460446FFF7E2FF4FF08040484ED0F87B
:1004B0000012C4B141F00401C0F80012102000F095
:1004C00011FA4FF400200090424843492844B346B3
:1004D00088426DD84FF000094FF0FF324F464E462C
:1004E000AE46012015E041F00101C0F800120120E4
:1004F00000F0F8F90020E6E7F2B3032839D0042829
:1005000002D0022805D102E04FEA8E0501E04FEA51
:100510004E0502236AB3BBFBF3F1304CDFF8BCC0DD
:100520000C44CCF1000C644520D80224C1F35D0AD0
:10053000DFF8A0C00AFB04F101EB0C08DFF8A0C053
:10054000E0450ED8B1EB950F02D9A1EB950101E082
:10055000C1EB9501914204D20A009946274606460E
:1005600004D040F20121641C8C42E1D95B1C202B99
:10057000D0D9401C042800E000E0BDD919480099FA
:1005800000EB8630184A084302EB49210843B91EA4
:1005900008434FF08041C1F84002042000F0A2F966
:1005A00006FB09F6BBFBF6F078434000BDE8F88F88
:1005B0005CB10E494FF08040C0F84012042000F0BA
:1005C00091F9BDE8F84F00F0A7B844F21E21F1E719
:1005D000001BB700800F05FD8074D21A00F7C2FF20
:1005E000C068780400C0FFFF00FEFFFF1E42080045
:1005F0004FF08041D1F800220243C1F80022704739
:1006000010B500F08FFE0148006810BD000000200A
:1006100010B500F087FE0148006810BD0000002002
:100620004FF08040D0F80002C00700D0004870476B
:10063000001BB7004FF08040D0F80002800702D5C1
:100640004FF40040704700207047000010B500F0E4
:1006500069FE4FF08041D1F834024207134817D0A9
:10066000D1F8342202F00702012A13D0D1F8342243
:1006700002F00702022A10D0D1F8342202F0070259
:10068000032A0DD0D1F8341201F0070104290AD051
:10069000006810BD0068400810BD0068800810BDEB
:1006A0000068C00810BD0068000910BD00000020EF
:1006B00010B500F037FE4FF08041D1F8340210F051
:1006C000700F144817D0D1F83422C2F30212012A55
:1006D00013D0D1F83422C2F30212022A10D0D1F87A
:1006E0003422C2F30212032A0DD0D1F83412C1F31E
:1006F000021104290AD0006810BD0068400810BD2E
:100700000068800810BD0068C00810BD00680009BE
:1007100010BD00000000002008B510A100200968ED
:1007200000914FF08041D1F8401211F4A02F13D165
:100730000B488A0310D4C1F30800C1F38132094B7E
:10074000801C1DF80220C1F344215843491C11FBB1
:1007500002F1B0FBF1F0C00008BD0000010202048C
:10076000001BB700C0C62D0070B54FF08044064690
:10077000D4F8500200F010051B48864200D9064606
:10078000D4F8000240F00400C4F80002102004F580
:10079000007400F0A7F8206940F007002061206A8B
:1007A00020F00F0020622068A4F50074C0073146D5
:1007B00004D00020FFF772FE064608E04FF4002048
:1007C000FFF76CFE0646D4F8500200F01005002139
:1007D000022000F00BF82DB9D4F8000220F004003C
:1007E000C4F80002304670BD00B0710B2DE9F04135
:1007F0004FF080440746D4F850020E4600F0100532
:10080000D4F8000240F00400C4F80002102004F5FF
:10081000007400F067F8206940F007002061206A4A
:1008200020F00F0030432062206920F00700384399
:100830002061A4F5007400F075FD002D05D1D4F8F9
:10084000000220F00400C4F80002BDE8F0810000BE
:10085000F0B510F47F3F2ED04FF08043D3F8F43141
:10086000DFF878C0DFB21D4BC0F381440C3B6FEA68
:1008700090450CF1040603EB8403012F02D0022CF7
:100880000DD001E0022C02D0AC070AD00AE0C3432D
:10089000DC06134B06D000F01F041D2C02D063466B
:1008A00000E033461C68C0F38725C0F34416B5400A
:1008B000AC4314431C60420E52070ED0084BC0F3E9
:1008C0000172183B03EB82021368C0F34264C0F369
:1008D00004508440A3430B431360F0BD2C0200403E
:1008E0002802004070B505460B480C4E01240068F4
:1008F00041080020A207306001E0491E06D0D2F86E
:10090000503235EA0300F8D109B103E000244FF07A
:10091000FF303060204670BD000000203000002015
:1009200010B502460020054C03E012F8013B43409D
:10093000E05C491E89B2F8D210BD000068200000BA
:1009400010B54FF08040816E21F00F018166816EFD
:1009500021F0F0018166816E21F470618166094C9D
:1009600001221146204600F059F8012202212046BA
:1009700000F054F820460122BDE81040042100F0A8
:100980004DB80000C04100400448C16841F0020178
:10099000C16003490120C1F8F80070473800002009
:1009A0000030044010B500EB810050F8801F044C6B
:1009B0002140016001681A431143016010BD00002D
:1009C000C0FFE0FF10B50D4A0D4B002412681C60FB
:1009D000046D24F480740465046D41F001010C433E
:1009E000046501E0521E04D0D0F81011C907F9D0F7
:1009F00010BD4FF0FF30186010BD00000000002057
:100A00003400002000EB810050F8801F21F07F416E
:100A10000160016841EA026101607047F0B500239E
:100A20000127032507FA03F48C4309D106685C000B
:100A300005FA04FC26EA0C0602FA04F426430660D2
:100A40005B1C102BEED3F0BDF0B50023012703256E
:100A500007FA03F40C4209D0866A5C0005FA04FC2C
:100A600026EA0C0602FA04F4264386625B1C102B6D
:100A7000EED3F0BD044603A000F0CCFE204601F00A
:100A80006FFAFEE7496E2048617264204661756C1A
:100A9000742048616E646C65720A000000F01F02E9
:100AA000012191404009800000F1E020C0F80011D0
:100AB000704701238B404AB1012A0DD0022A04D18C
:100AC000D0F838141943C0F838147047D0F8181407
:100AD0001943C0F81814704700EB0110016821F0A9
:100AE000800101607047000010490868C20703D008
:100AF000081D01680160704782070ED50B48083059
:100B00000168C1F381310329F5D1890301600848E7
:100B1000C16821F00201C160704710F4407FFBD032
:100B20004FF4800008604000086070471C8400405B
:100B30000010064070B50022094D0126134606FA42
:100B400002F40C4203D000EB02142360AB54521C9D
:100B5000102AF4D3D0F800240A43C0F8002470BD52
:100B60005000002000EB0110016821F074010160C9
:100B700001681A4311430160704730B500EB011062
:100B8000DDE9034542608460016821F47061016021
:100B900001682B431943016030BD000010B500EB24
:100BA000011001684CF6FF74214001600168034C9C
:100BB00004EB034313431943016010BD0000FFFF22
:100BC00030B54D4D039C10296A547DD2DFE801F009
:100BD00008101720272F363F464E555E656D7489E5
:100BE000D0F8805425F07F051543C0F880546BE0A1
:100BF000D0F8805425F4FE4545EA022205E0D0F8FD
:100C0000805425F4FE0545EA0242C0F880245BE0EA
:100C1000D0F8805425F0FE4545EA0262F5E7D0F8A9
:100C2000845425F07F051543C0F884544CE0D0F877
:100C3000845425F4FE4545EA022205E0D0F88454A8
:100C400025F4FE0545EA0242C0F884243CE0D0F8D1
:100C5000845425F0FE4545EA0262F5E7D0F8885451
:100C600025F07F051543C0F888542DE0D0F888544E
:100C700025F4FE4545EA022205E0D0F8885425F423
:100C8000FE0545EA0242C0F888241DE0D0F88854E9
:100C900025F0FE4545EA0262F5E7D0F88C5425F0D0
:100CA0007F051543C0F88C540EE0D0F88C5425F421
:100CB000FE4545EA022205E0D0F88C5425F4FE05F5
:100CC00045EA0242C0F88C2400EB0110016821F0D3
:100CD00003016BB1891C016008490968611AC16090
:100CE00030BDD0F88C5425F0FE4545EA0262E9E7B4
:100CF000491C016030BD0000500000203C840040D1
:100D00000C484169090713D50B49D1F8F0100A0CBA
:100D10000A49C2F13F020A80C26822F00202C260A0
:100D2000CA6842F00402CA60416941F008014161A9
:100D3000704700000010064000800040380000208E
:100D4000016941F4807101617047816821F00901F6
:100D500081607047CA0703D0026842F40032026023
:100D60008A0703D5826842F4805282604A0703D51D
:100D7000826842F4005282600A0703D5826842F416
:100D800000728260CA0603D5826842F48072826073
:100D90004A0603D5026942F0800202610A0603D5C1
:100DA000026942F008020261CA0503D5026942F0F5
:100DB000040202618A0503D5026942F02002026141
:100DC000490503D5016941F0100101617047000038
:100DD00038B50748074C009008230422002120461C
:100DE00000F026F82046BDE83840FFF7AEBF00000F
:100DF00000350C000020064030B50C4D0023AC68D7
:100E000024F00C0444F00104AC6005E0CC5C046206
:100E10005B1C4469E407FCD19342F7D3A86820F037
:100E2000080040F00500A86030BD0000002006402A
:100E30002DE9F0470446089D006E1F4692468946FC
:100E400020F001002066202B00D10027FFF7E0FBF7
:100E5000714ADFF8C0C1714B510406464FF00008DB
:100E6000B9F1000F13D0C4F8088049EA072040EA1E
:100E70000A0040F001002060C4F8048064457DD180
:100E8000D1F8180220F0300040F02000B2E0C4F8A1
:100E9000088048EA072040EA0A0040F0010020608C
:100EA000B54220D3644506D1D1F8180220F03000B5
:100EB00040F0200015E0944206D1D1F8180220F04D
:100EC000C00040F080000CE0D1F818029C4204D130
:100ED00020F4406040F4006003E020F4405040F40F
:100EE0000050C1F818024E4864450FD1D1F81822BD
:100EF00012F0300F48D0D1F81822C2F30112012AA3
:100F00003DD0D1F81812C1F3011122E094420FD163
:100F1000D1F8182212F0C00F36D0D1F81822C2F33F
:100F20008112012A2BD0D1F81812C1F3811122E0CD
:100F3000D1F818229C4211D112F4406F24D0D1F87C
:100F40001822C2F38122012A19D0D1F81812C1F354
:100F50008121022918D1FFF7ABFB15E012F4405FA5
:100F600012D0D1F81822C2F30132012A07D0D1F8E9
:100F70001812C1F30131022904D005E029E0FFF77E
:100F8000CBFB01E0FFF762FBB54201D2854203D300
:100F9000C4F80480BDE8F08740F2FF125DB100EBB9
:100FA00080014900B1FBF5F10A23491DB1FBF3F1C2
:100FB000491EFF2904D9616811436160000AE9E70D
:100FC00062686FF308020A436260491CB0FBF1F0EB
:100FD000E0E7944206D1D1F8180220F0C00040F0BA
:100FE000800011E0D1F818029C4209D120F4406041
:100FF00040F40060C1F81802BDE8F047FFF758BBA5
:1010000020F4405040F40050C1F81802BDE8F04709
:10101000FFF71CBB001006400020064000300640D1
:10102000001BB700036923F0EE4343EA017141EA74
:10103000026101617047000038B5104800F04EF9B8
:1010400000200F4C04220090082311042046FFF7D3
:10105000EFFE2046FFF774FE042211462046FFF7FC
:10106000E1FF04212046FFF775FE4FF0FF312162BA
:10107000BDE838401720FFF711BD00000D00000447
:101080000010064040220021014800F04BBF000044
:10109000A00000207CB5FFF7F5FF134D4023002290
:1010A0000F212846FFF77AFD00241048CDE90004FF
:1010B0004FF440730E4A0F212846FFF75EFD0023D0
:1010C00017220F2128460094FFF77AFD084930398E
:1010D000C86840F00200C86002B02846BDE8704011
:1010E00000220F21FFF7E5BC00800040A000002097
:1010F000301006407CB5FFF7C5FF1D4C4FF4404152
:101100002046FFF717FD402300220F212046FFF75E
:1011100045FD00251748CDE900054FF44073164AF8
:101120000F212046FFF729FD002317220F2120461B
:101130000095FFF745FD002304220F212046FFF70D
:1011400011FDD4F8F00040F08000C4F8F0000A4827
:101150003038C16841F00201C16000220F212046F1
:10116000FFF7A7FCBDE87C402820FFF797BC0000F4
:1011700000800040A00000203010064070B55920CB
:10118000840716218822C4F80001C4F80011C4F8AD
:101190000021D4F80031002BF5D04FF04025D5F8D0
:1011A000400120F0F000C5F840010420FFF720FACC
:1011B0001020FFF797FB4248FFF7D6FA1120C4F83A
:1011C0003402404E3046FFF75BF900224FF0407189
:1011D0003046FFF73DFB3C4E002220213046FFF712
:1011E00037FB3046FFF74CF9384E0022802130465D
:1011F000FFF72EFB3046FFF743F9354E3046FFF739
:101200003FF94FF4E02200213046FFF721FB012097
:10121000FFF736F92F4E3046FFF732F900224FF430
:10122000E0413046FFF714FB00F07CF8E06B20F45F
:101230007F00E063E06B40F4CC00E063206B6FF371
:101240000F002063206B44F2444108432063686A26
:1012500040F00400686201220F212846FFF7F4FBEA
:10126000206C6FF30F002064206C47F27771084305
:10127000206455F8A40F40F0020045F864090122EB
:101280000F211548FFF7E0FB286820F04050286048
:10129000E06B20F07060E063E06B40F08070E06332
:1012A000686840F080406860E06940F00100E061FB
:1012B000002000F01FF80020C4F8000170BD0000FD
:1012C00000B0710B103D80570D0040660E00606647
:1012D0001CFE03400300C05E804000400121044A20
:1012E000814002EB106002680A438A430260704743
:1012F000080000404FF080418A6A22F01F0202433A
:101300008A62704706498A691202FCD40A2804D10D
:101310000D220A608A691202FCD40860704700003E
:101320000000074010B5FFF7F7F90E4A4FF0804371
:101330009060D3F8101201F00701022903D002F1E6
:101340000C0050F82100D3F8201201F00F01491CC5
:10135000B0FBF1F00449106008444900B0FBF1F023
:10136000506010BD0000002020A107001A4801684D
:1013700041F4700101601948C16C21F00F0141F086
:101380000801C1644FF08040D0F8981241F48021E8
:10139000C0F89812D0F8081241F00201C0F8081203
:1013A0000F49D1F8042102F0F732C1F80421D1F835
:1013B000082102F0F732C1F80821D0F8081221F014
:1013C0000201C0F808124FF04020D0F8401121F07F
:1013D000F001C0F84011704788ED00E000C0004007
:1013E0000010044010B50A4C4FF47A724FF00061BF
:1013F000204600F04BF8206840F00050206021208B
:10140000FFF74CFB206840F08040206010BD0000DA
:101410000001054010B588B00446202217496846EF
:10142000FEF746FF164A174B9003944204D1D0F8BA
:101430001402C0F3022110E09C4204D1D0F814023F
:10144000C0F3023109E01049D0F814028C4202D1F5
:10145000C0F3024101E0C0F30251022903D05DF85C
:10146000210008B010BD944201D09C4202D1FFF788
:10147000EDF8F6E7FFF71CF9F3E70000482000005D
:1014800000000540000105400010054070B51646FB
:101490000D460446FFF7BEFF0023B6EB500F01D9FF
:1014A000022206E0B0FBF6F2130E02D0591CB2FB8A
:1014B000F1F21D43256062605B1C5A43B0FBF2F001
:1014C00070BD00000D4800B58168C1F3000100291E
:1014D00012D00121816000F097FD094A10694FF494
:1014E0007A71B0FBF1F301FB130020B905480168E4
:1014F00081F001010160106900BD0000000105409C
:1015000038000020C049004010B50B4CE06910F4D1
:10151000885F02D104E000F049F9A1694904FAD5D5
:10152000A169204611F0710F05D0BDE810404FF4BD
:10153000105100F087B810BD0000074010B51E48DC
:10154000FFF7CCFE1D4C4FF4E131204600F098F837
:101550001421204600F020F9A06820F01000A060BF
:10156000A06840F02000A060606840F611010843C8
:1015700060602420FFF792FAFFF742F8014610A0BE
:1015800000F048F9FFF74CF8014614A000F042F9CA
:10159000FFF750F8014617A000F03CF9FFF756F8A6
:1015A00001461AA000F036F9FFF782F80146BDE8BF
:1015B00010401DA000F02EB91000000400000740EC
:1015C0000D0A434C4B5F4765744350554672657135
:1015D000203A202538640D0A00000000434C4B5F80
:1015E00047657448585446726571203A202538641E
:1015F0000D0A0000434C4B5F4765744C58544672CB
:101600006571203A202538640D0A0000434C4B5F79
:1016100047657450434C4B3046726571203A202523
:1016200038640D0A00000000434C4B5F476574505E
:10163000434C4B3146726571203A202538640D0ABF
:10164000000000004A0503D57022826108228261F1
:101650000A0503D5426942F0010242618A0401D5BC
:10166000064A82614A0401D51F224264090404D556
:101670008021C16140F20F31816370470100000198
:101680002DE9FF4104463C480F4600250FC88DE870
:101690000F003A492E464FF080408C4206D1D0F8D8
:1016A0001412D0F82002C1F301652AE034498C42BB
:1016B00006D1D0F81412D0F82002C1F381652BE0D6
:1016C00030498C4208D1D0F81C12D0F83002C1F356
:1016D000016500F00F0621E02B498C4208D1D0F8BB
:1016E0001C12D0F83002C1F38165C0F3031615E077
:1016F00026498C4208D1D0F81C12D0F83002C1F330
:101700000175C0F3032609E021498C4206D1D0F8C7
:101710001C12D0F830028D0FC0F303360020206376
:101720000320E060A0681B490840A060E846012D46
:1017300002D1FEF7F1FF0190002F1AD058F82510C2
:10174000761CB1FBF6F000EB5700B0FBF7F0801E03
:10175000B0F5803F0AD3B1FBF6F000EBC700B0FB59
:10176000F7F06FF0010101EB101001E040F0405084
:101770006062BDE8FF810000182000000000074003
:10178000001007400020074000300740004007409D
:10179000005007400FFFF0FF026A22F0FF020A43E9
:1017A0000262416841F4006141607047114800687D
:1017B000C0B27F2802D910A000F02CB85A2809D056
:1017C00004DC312813D0582813D103E0782801D045
:1017D0007A280ED1BFF34F8F0C4801680C4A01F4F0
:1017E000E06111430160BFF34F8F00BFFDE700F0E0
:1017F000F3BA704700000740696E76616C69642037
:10180000636F6D6D616E640D0A0000000CED00E009
:101810000400FA050FB4054B10B503A9044A029859
:1018200000F018F810BC5DF814FB0000CD1D00009E
:101830002C00002002E008C8121F08C1002AFAD1BB
:1018400070477047002001E001C1121F002AFBD140
:10185000704700002DE9FF4F8DB00F46054600266A
:1018600006E025280BD0DDE90F1290476D1C761C91
:1018700028780028F5D111B03046BDE8F08F00245B
:10188000A246A1460122EC4900E0044315F8013FBD
:10189000203B02FA03F00842F7D128782A2810D01A
:1018A0006FF02F022878A0F13001092914D80AEB33
:1018B0008A0102EB410144F0020400EB010A6D1CB5
:1018C000F0E701CF5FEA000A03D544F40054CAF1FF
:1018D000000A44F002046D1C28782E2817D115F850
:1018E000010F44F004042A280ED06FF02F0228784C
:1018F000A0F1300109290AD809EB890102EB410165
:1019000000EB01096D1CF2E757F8049B6D1C287869
:101910006C280FD006DC4C2817D068280DD06A2818
:1019200014D104E0742810D07A280FD10DE044F4CB
:1019300000140AE044F4801401E044F4401469788F
:10194000814202D104F580146D1C6D1C2A786E2A28
:101950001FD00CDC632A31D004DC002A8BD0582A3B
:1019600011D1A3E0642A68D0692A0CD165E0732AFA
:101970002ED004DC6F2A73D0702A04D19BE0752A24
:101980006FD0782A6ED01046DDE90F129047761C92
:1019900050E1C4F30250022806D0032809D00428DD
:1019A00001CF09D0066045E101CFF117C0E9006120
:1019B00040E101CF06803DE106703BE117F8040BE2
:1019C0008DF8000000208DF80100EB46012003E0B7
:1019D00057F804BB4FF0FF3061074FF0000102D40D
:1019E0000DE008F10101884649450FDA8045F8DB32
:1019F0001BF808100029F4D108E008F1010188461D
:101A00008142FADB1BF808100029F6D1DDE90F232B
:101A1000AAEB08008146214600F036F9304400EB7D
:101A2000080604E0DDE90F121BF8010B9047B8F13E
:101A30000108F7D221464846F7E00A21C4F30253D1
:101A40004FF0000B0891022B04D001CFC117032BDC
:101A500009D00AE0FF1D27F00707F7E8020108E0B8
:101A600032E01FE020E000B2C117042B01D140B2E8
:101A7000C117031E71F1000307DA4FF0000CD0EB21
:101A80000C006CEB01012D2302E0230504D52B2370
:101A90008DF82430012303E0E30701D02023F7E78A
:101AA000984658E00A2110E010210EE010204FF077
:101AB000000B08900CE010214FF0000B44F00404E0
:101AC0004FF00809089103E008214FF0000B08913E
:101AD000C4F30253022B04D001CF0021032B06D004
:101AE00006E0FF1D27F00707F7E8020103E080B2D8
:101AF000042B00D1C0B24FF0000823072BD5702A69
:101B000007D0DDF820C08CF0100C5CEA0B0C05D07F
:101B10000EE040238DF82430012308E050EA010351
:101B200006D030238DF824308DF8252002239846E6
:101B3000DDF820C08CF0080C5CEA0B0C0BD150EAED
:101B4000010301D1630706D530238DF824304FF00F
:101B50000108A9F10109582A04D038A20B9208AA59
:101B60000A920BE03AA2F9E75B46089AFEF7B2FB4D
:101B70000B9B9B5C0A9A521E0A92137050EA010258
:101B8000F2D10A98ADEB000000F1200B600702D5FE
:101B900024F4803401E04FF00109D94502DDA9EBBE
:101BA0000B0000E0002000EB0B0141440890AAEB81
:101BB000010AE00306D4DDE90F232146504600F078
:101BC00063F806444FF0000908E009A911F809007C
:101BD000DDE90F12904709F10109761CC145F4DBDC
:101BE000E0030CD5DDE90F232146504600F04CF808
:101BF000064404E0DDE90F1230209047761C089976
:101C0000481E08900029F5DC08E00A980A99007837
:101C1000491C0A91DDE90F129047761CBBF10001C7
:101C2000ABF1010BF1DC21465046DDE90F2300F05A
:101C300019F806446D1C1BE60928010030313233C7
:101C400034353637383961626364656600000000F8
:101C500030313233343536373839414243444546E2
:101C6000000000002DE9F041044600251E461746FD
:101C7000880404D405E039462020B0476D1C641E5A
:101C8000F9D52846BDE8F0812DE9F041044600254C
:101C90001E469046C80301D5302700E0202788045F
:101CA00004D505E041463846B0476D1C641EF9D5A1
:101CB0002846BDE8F08100002DE9F04116460F46A8
:101CC000804600240F4D0EE018F804203B5D9A4238
:101CD00007D021460CA0FFF79DFDE86840F0080002
:101CE000E860641CA4B2B442EEDBE868000707D4E5
:101CF0000E490FA0FFF78EFDE86820F00800E860AD
:101D0000BDE8F081380000206572726F722069644E
:101D100078203A20253464203A2030782532582023
:101D20002C2030782532580D0A0000006821000070
:101D300025732066696E697368200D0A0000000033
:101D40002DE9F0410E460746002525E0294616A05C
:101D5000FFF760FD00242819395C16A0FFF75AFD33
:101D6000641C102CF7DB15A0FFF754FD0024281984
:101D7000395CA1F120005F2803D211A0FFF74AFDD2
:101D800002E010A0FFF746FD641C761E102CEEDB6F
:101D90000DA01035FFF73EFD002ED7DCBDE8F04169
:101DA00009A0FFF737BD00003078253034582020D7
:101DB00000000000253032582000000020200000E4
:101DC000256300002E0000000A00000010B5044644
:101DD000FFF798FA204610BDF8B5002401273E46CB
:101DE00040222146184800F09DF83C21012000F0D7
:101DF00085F8C5B2144803E001198C70641CE4B284
:101E0000AC42F9D3B91904462944801CFEF788FD79
:101E100001465A202070601965708170A522C27039
:101E2000281DC4B22A460091234611460748FFF7F1
:101E3000F1FC21460448FFF783FF2246BDE8F84045
:101E400001490348FEF7D8BF600000207821000058
:101E5000002006401CB5124CE06840071ED5E06823
:101E600020F00400E0600F482188421812F8022C8C
:101E7000CDE9001243780A1F0B48091FFFF7CAFC7F
:101E800021880848FFF75CFF06492288A1F140003D
:101E9000FFF712FFBDE81C40FFF7FCB81CBD0000B7
:101EA00038000020A0000020BC210000FFF766F9E8
:101EB000FFF744FBFEF744FDFFF794FA0E20FEF710
:101EC0006DFA00F009F8FEF783FFFFF7B5F8FFF7AA
:101ED00011F9FFF7BFFFFCE710B5FEF79DFA064CBE
:101EE0006080FEF799FAA080FEF796FAE080FEF790
:101EF00093FA208110BD00003800002070B505461F
:101F00004C1B641CFEF788FA86B200F013F83044CC
:101F1000FEF7C6F9FEF7BAF9B0FBF4F104FB1100C5
:101F2000284470BDC9B201E000F8011B521EFBD26B
:101F30007047000009490A89521C0A814888CB88E9
:101F40005840504048808A88024492B28A8003EB0D
:101F50005202424090B2C880704700003800002012
:101F600010B50446016810A0FFF754FC11A0616889
:101F7000FFF750FC12A0A168FFF74CFC13A0E1682A
:101F8000FFF748FC14A02169FFF744FC15A0616924
:101F9000FFF740FC16A0A169FFF73CFCE169BDE832
:101FA000104016A0FFF736BC723020203D2030785C
:101FB00025780A00723120203D20307825780A00EB
:101FC000723220203D20307825780A00723320209C
:101FD0003D20307825780A00723132203D2030785B
:101FE00025780A006C7220203D20307825780A0080
:101FF000706320203D20307825780A0070737220AD
:102000003D20307825780A0002480169491C0161A9
:102010007047000038000020001BB70000000000DF
:1020200000800000001BB700001BB700000000008C
:1020300000800000001BB700001BB700000000007C
:1020400000800000001BB700001BB70000800000EC
:102050000000000000000000000000001027000049
:1020600000000000001BB70000316253C4F5A697C2
:10207000B988DBEA7D4C1F2E4372211087B6E5D468
:10208000FACB98A93E0F5C6D86B7E4D54273201158
:102090003F0E5D6CFBCA99A8C5F4A7960130635248
:1020A0007C4D1E2FB889DAEB3D0C5F6EF9C89BAAF8
:1020B00084B5E6D7407122137E4F1C2DBA8BD8E928
:1020C000C7F6A59403326150BB8AD9E87F4E1D2C18
:1020D00002336051C6F7A495F8C99AAB3C0D5E6F08
:1020E0004170231285B4E7D67A4B1829BE8FDCEDF8
:1020F000C3F2A1900736655439085B6AFDCC9FAEE8
:1021000080B1E2D344752617FCCD9EAF38095A6BD7
:102110004574271681B0E3D2BF8EDDEC7B4A1928C7
:1021200006376455C2F3A0914776251483B2E1D0F7
:10213000FECF9CAD3A0B586904356657C0F1A293A7
:10214000BD8CDFFE79481B2AC1F0A3920534675687
:1021500078491A2BBC8DDEEF82B3E0D14677241587
:102160003B0A5968FFCE9DAC636F6D706172655F0D
:102170006275666665720000535049205458203DD0
:10218000202864617461206C656E3A30782532587D
:102190002F253264202C7061636B6574206C656E32
:1021A0003A30782532582C636865636B73756D20FF
:1021B0003A3078253258290D0A0000005350492042
:1021C0005258203D202864617461206C656E3A305D
:1021D000782532582F25326428253264292C7061E5
:1021E000636B6574206C656E3A30782532582C63C9
:1021F0006865636B73756D203A3078253258290D08
:102200000A0000002422000000000020500000000E
:1022100034180000742200005000002090080000D4
:1022200044180000001BB7000C000000001BB700A2
:10223000001BB70000800000000000001027000015
:10224000000000000000000000000000001BB700BC
:10225000000000000000000000000000000000007E
:10226000000000000000000000000000000000006E
:04227000000000006A
:0400000500000225D0
:00000001FF
